{
  "_format": "hh-sol-artifact-1",
  "contractName": "MedVault",
  "sourceName": "contracts/MedVault.sol",
  "abi": [
    {
      "inputs": [],
      "stateMutability": "nonpayable",
      "type": "constructor"
    },
    {
      "anonymous": false,
      "inputs": [
        {
          "indexed": false,
          "internalType": "address",
          "name": "doctor",
          "type": "address"
        }
      ],
      "name": "DoctorAdded",
      "type": "event"
    },
    {
      "anonymous": false,
      "inputs": [
        {
          "indexed": false,
          "internalType": "address",
          "name": "doctor",
          "type": "address"
        }
      ],
      "name": "DoctorRemoved",
      "type": "event"
    },
    {
      "anonymous": false,
      "inputs": [
        {
          "indexed": true,
          "internalType": "address",
          "name": "patient",
          "type": "address"
        },
        {
          "indexed": false,
          "internalType": "string",
          "name": "ipfsHash",
          "type": "string"
        }
      ],
      "name": "RecordUploaded",
      "type": "event"
    },
    {
      "inputs": [
        {
          "internalType": "address",
          "name": "_doctor",
          "type": "address"
        }
      ],
      "name": "addDoctor",
      "outputs": [],
      "stateMutability": "nonpayable",
      "type": "function"
    },
    {
      "inputs": [],
      "name": "admin",
      "outputs": [
        {
          "internalType": "address",
          "name": "",
          "type": "address"
        }
      ],
      "stateMutability": "view",
      "type": "function"
    },
    {
      "inputs": [
        {
          "internalType": "address",
          "name": "_patient",
          "type": "address"
        },
        {
          "internalType": "uint256",
          "name": "index",
          "type": "uint256"
        }
      ],
      "name": "getRecord",
      "outputs": [
        {
          "internalType": "string",
          "name": "",
          "type": "string"
        },
        {
          "internalType": "address",
          "name": "",
          "type": "address"
        },
        {
          "internalType": "uint256",
          "name": "",
          "type": "uint256"
        }
      ],
      "stateMutability": "view",
      "type": "function"
    },
    {
      "inputs": [
        {
          "internalType": "address",
          "name": "_patient",
          "type": "address"
        }
      ],
      "name": "getRecordCount",
      "outputs": [
        {
          "internalType": "uint256",
          "name": "",
          "type": "uint256"
        }
      ],
      "stateMutability": "view",
      "type": "function"
    },
    {
      "inputs": [
        {
          "internalType": "address",
          "name": "",
          "type": "address"
        }
      ],
      "name": "isDoctor",
      "outputs": [
        {
          "internalType": "bool",
          "name": "",
          "type": "bool"
        }
      ],
      "stateMutability": "view",
      "type": "function"
    },
    {
      "inputs": [
        {
          "internalType": "address",
          "name": "",
          "type": "address"
        },
        {
          "internalType": "uint256",
          "name": "",
          "type": "uint256"
        }
      ],
      "name": "records",
      "outputs": [
        {
          "internalType": "string",
          "name": "ipfsHash",
          "type": "string"
        },
        {
          "internalType": "address",
          "name": "uploadedBy",
          "type": "address"
        },
        {
          "internalType": "uint256",
          "name": "timestamp",
          "type": "uint256"
        }
      ],
      "stateMutability": "view",
      "type": "function"
    },
    {
      "inputs": [
        {
          "internalType": "address",
          "name": "_doctor",
          "type": "address"
        }
      ],
      "name": "removeDoctor",
      "outputs": [],
      "stateMutability": "nonpayable",
      "type": "function"
    },
    {
      "inputs": [
        {
          "internalType": "address",
          "name": "_patient",
          "type": "address"
        },
        {
          "internalType": "string",
          "name": "_ipfsHash",
          "type": "string"
        }
      ],
      "name": "uploadRecord",
      "outputs": [],
      "stateMutability": "nonpayable",
      "type": "function"
    }
  ],
  "bytecode": "0x608060405234801561001057600080fd5b5033600260006101000a81548173ffffffffffffffffffffffffffffffffffffffff021916908373ffffffffffffffffffffffffffffffffffffffff1602179055506111c5806100616000396000f3fe608060405234801561001057600080fd5b50600436106100885760003560e01c806398fc90e91161005b57806398fc90e914610127578063996440c614610143578063cdb8acf014610173578063f851a440146101a557610088565b8063026e09cd1461008d5780634780468f146100a957806358214308146100c557806382a6c0ac146100f5575b600080fd5b6100a760048036038101906100a29190610af6565b6101c3565b005b6100c360048036038101906100be9190610b52565b6103fa565b005b6100df60048036038101906100da9190610b52565b61051b565b6040516100ec9190610b98565b60405180910390f35b61010f600480360381019061010a9190610bdf565b610566565b60405161011e93929190610cad565b60405180910390f35b610141600480360381019061013c9190610b52565b610655565b005b61015d60048036038101906101589190610b52565b610777565b60405161016a9190610d06565b60405180910390f35b61018d60048036038101906101889190610bdf565b610797565b60405161019c93929190610cad565b60405180910390f35b6101ad610918565b6040516101ba9190610d21565b60405180910390f35b600160003373ffffffffffffffffffffffffffffffffffffffff1673ffffffffffffffffffffffffffffffffffffffff16815260200190815260200160002060009054906101000a900460ff16806102685750600260009054906101000a900473ffffffffffffffffffffffffffffffffffffffff1673ffffffffffffffffffffffffffffffffffffffff163373ffffffffffffffffffffffffffffffffffffffff16145b6102a7576040517f08c379a000000000000000000000000000000000000000000000000000000000815260040161029e90610dae565b60405180910390fd5b6000808373ffffffffffffffffffffffffffffffffffffffff1673ffffffffffffffffffffffffffffffffffffffff16815260200190815260200160002060405180606001604052808381526020013373ffffffffffffffffffffffffffffffffffffffff16815260200142815250908060018154018082558091505060019003906000526020600020906003020160009091909190915060008201518160000190816103549190610fda565b5060208201518160010160006101000a81548173ffffffffffffffffffffffffffffffffffffffff021916908373ffffffffffffffffffffffffffffffffffffffff1602179055506040820151816002015550508173ffffffffffffffffffffffffffffffffffffffff167f01b64c1967d10407b4ff97725353edea760930f8e25d265e786a16eecbe4d7f7826040516103ee91906110ac565b60405180910390a25050565b600260009054906101000a900473ffffffffffffffffffffffffffffffffffffffff1673ffffffffffffffffffffffffffffffffffffffff163373ffffffffffffffffffffffffffffffffffffffff161461048a576040517f08c379a000000000000000000000000000000000000000000000000000000000815260040161048190611140565b60405180910390fd5b60018060008373ffffffffffffffffffffffffffffffffffffffff1673ffffffffffffffffffffffffffffffffffffffff16815260200190815260200160002060006101000a81548160ff0219169083151502179055507f69908b2e63170aa89ef89719bbe3b4c92cccc38653968ab25f4464eff7c28ac8816040516105109190610d21565b60405180910390a150565b60008060008373ffffffffffffffffffffffffffffffffffffffff1673ffffffffffffffffffffffffffffffffffffffff168152602001908152602001600020805490509050919050565b6000602052816000526040600020818154811061058257600080fd5b9060005260206000209060030201600091509150508060000180546105a690610dfd565b80601f01602080910402602001604051908101604052809291908181526020018280546105d290610dfd565b801561061f5780601f106105f45761010080835404028352916020019161061f565b820191906000526020600020905b81548152906001019060200180831161060257829003601f168201915b5050505050908060010160009054906101000a900473ffffffffffffffffffffffffffffffffffffffff16908060020154905083565b600260009054906101000a900473ffffffffffffffffffffffffffffffffffffffff1673ffffffffffffffffffffffffffffffffffffffff163373ffffffffffffffffffffffffffffffffffffffff16146106e5576040517f08c379a00000000000000000000000000000000000000000000000000000000081526004016106dc90611140565b60405180910390fd5b6000600160008373ffffffffffffffffffffffffffffffffffffffff1673ffffffffffffffffffffffffffffffffffffffff16815260200190815260200160002060006101000a81548160ff0219169083151502179055507f493d7cf6a7c880406a55654d6727464ea088bd01d40498e1987a327e68961ab88160405161076c9190610d21565b60405180910390a150565b60016020528060005260406000206000915054906101000a900460ff1681565b606060008060008060008773ffffffffffffffffffffffffffffffffffffffff1673ffffffffffffffffffffffffffffffffffffffff16815260200190815260200160002085815481106107ee576107ed611160565b5b906000526020600020906003020160405180606001604052908160008201805461081790610dfd565b80601f016020809104026020016040519081016040528092919081815260200182805461084390610dfd565b80156108905780601f1061086557610100808354040283529160200191610890565b820191906000526020600020905b81548152906001019060200180831161087357829003601f168201915b505050505081526020016001820160009054906101000a900473ffffffffffffffffffffffffffffffffffffffff1673ffffffffffffffffffffffffffffffffffffffff1673ffffffffffffffffffffffffffffffffffffffff1681526020016002820154815250509050806000015181602001518260400151935093509350509250925092565b600260009054906101000a900473ffffffffffffffffffffffffffffffffffffffff1681565b6000604051905090565b600080fd5b600080fd5b600073ffffffffffffffffffffffffffffffffffffffff82169050919050565b600061097d82610952565b9050919050565b61098d81610972565b811461099857600080fd5b50565b6000813590506109aa81610984565b92915050565b600080fd5b600080fd5b6000601f19601f8301169050919050565b7f4e487b7100000000000000000000000000000000000000000000000000000000600052604160045260246000fd5b610a03826109ba565b810181811067ffffffffffffffff82111715610a2257610a216109cb565b5b80604052505050565b6000610a3561093e565b9050610a4182826109fa565b919050565b600067ffffffffffffffff821115610a6157610a606109cb565b5b610a6a826109ba565b9050602081019050919050565b82818337600083830152505050565b6000610a99610a9484610a46565b610a2b565b905082815260208101848484011115610ab557610ab46109b5565b5b610ac0848285610a77565b509392505050565b600082601f830112610add57610adc6109b0565b5b8135610aed848260208601610a86565b91505092915050565b60008060408385031215610b0d57610b0c610948565b5b6000610b1b8582860161099b565b925050602083013567ffffffffffffffff811115610b3c57610b3b61094d565b5b610b4885828601610ac8565b9150509250929050565b600060208284031215610b6857610b67610948565b5b6000610b768482850161099b565b91505092915050565b6000819050919050565b610b9281610b7f565b82525050565b6000602082019050610bad6000830184610b89565b92915050565b610bbc81610b7f565b8114610bc757600080fd5b50565b600081359050610bd981610bb3565b92915050565b60008060408385031215610bf657610bf5610948565b5b6000610c048582860161099b565b9250506020610c1585828601610bca565b9150509250929050565b600081519050919050565b600082825260208201905092915050565b60005b83811015610c59578082015181840152602081019050610c3e565b60008484015250505050565b6000610c7082610c1f565b610c7a8185610c2a565b9350610c8a818560208601610c3b565b610c93816109ba565b840191505092915050565b610ca781610972565b82525050565b60006060820190508181036000830152610cc78186610c65565b9050610cd66020830185610c9e565b610ce36040830184610b89565b949350505050565b60008115159050919050565b610d0081610ceb565b82525050565b6000602082019050610d1b6000830184610cf7565b92915050565b6000602082019050610d366000830184610c9e565b92915050565b7f4f6e6c7920617070726f76656420646f63746f7273206f722061646d696e206360008201527f616e2075706c6f61640000000000000000000000000000000000000000000000602082015250565b6000610d98602983610c2a565b9150610da382610d3c565b604082019050919050565b60006020820190508181036000830152610dc781610d8b565b9050919050565b7f4e487b7100000000000000000000000000000000000000000000000000000000600052602260045260246000fd5b60006002820490506001821680610e1557607f821691505b602082108103610e2857610e27610dce565b5b50919050565b60008190508160005260206000209050919050565b60006020601f8301049050919050565b600082821b905092915050565b600060088302610e907fffffffffffffffffffffffffffffffffffffffffffffffffffffffffffffffff82610e53565b610e9a8683610e53565b95508019841693508086168417925050509392505050565b6000819050919050565b6000610ed7610ed2610ecd84610b7f565b610eb2565b610b7f565b9050919050565b6000819050919050565b610ef183610ebc565b610f05610efd82610ede565b848454610e60565b825550505050565b600090565b610f1a610f0d565b610f25818484610ee8565b505050565b5b81811015610f4957610f3e600082610f12565b600181019050610f2b565b5050565b601f821115610f8e57610f5f81610e2e565b610f6884610e43565b81016020851015610f77578190505b610f8b610f8385610e43565b830182610f2a565b50505b505050565b600082821c905092915050565b6000610fb160001984600802610f93565b1980831691505092915050565b6000610fca8383610fa0565b9150826002028217905092915050565b610fe382610c1f565b67ffffffffffffffff811115610ffc57610ffb6109cb565b5b6110068254610dfd565b611011828285610f4d565b600060209050601f8311600181146110445760008415611032578287015190505b61103c8582610fbe565b8655506110a4565b601f19841661105286610e2e565b60005b8281101561107a57848901518255600182019150602085019450602081019050611055565b868310156110975784890151611093601f891682610fa0565b8355505b6001600288020188555050505b505050505050565b600060208201905081810360008301526110c68184610c65565b905092915050565b7f4f6e6c792061646d696e2063616e20706572666f726d2074686973206163746960008201527f6f6e000000000000000000000000000000000000000000000000000000000000602082015250565b600061112a602283610c2a565b9150611135826110ce565b604082019050919050565b600060208201905081810360008301526111598161111d565b9050919050565b7f4e487b7100000000000000000000000000000000000000000000000000000000600052603260045260246000fdfea264697066735822122041b2799af79f2a9f398597fd2196bceee85c71ae025a2668966d51f8eeb5ae4464736f6c63430008110033",
  "linkReferences": {},
  "deployedLinkReferences": {}
}